:020000040800F2
:1000000000080020F90B0008E1020008E3020008E4
:1000100000000000000000000000000000000000E0
:10002000000000000000000000000000E5020008E1
:100030000000000000000000E7020008E9020008DC
:10004000790C000800000000790C0008790C000809
:10005000790C0008790C0008790C0008790C00086C
:1000600000000000790C0008790C0008790C0008E9
:10007000790C0008790C000800000000790C0008D9
:100080000000000000000000000000000000000070
:10009000790C00080000000000000000790C000846
:1000A00000000000790C00080000000000000000C3
:1000B000790C0008790C0008000000000000000026
:1000C000002934D00123002210B488422CD301240B
:1000D0002407A14204D2814202D209011B01F8E7A0
:1000E000E400A14204D2814202D249005B00F8E759
:1000F000884201D3401A1A434C08A04202D3001B85
:100100005C0822438C08A04202D3001B9C082243B7
:10011000CC08A04202D3001BDC082243002803D0F5
:100120001B0901D00909E3E7100010BC704701B5B5
:10013000002000F00BF802BD0029F8D003B5FFF74E
:10014000C1FF0EBC4243891A1847C0467047C046DB
:10015000002B11D1002A0FD1002900D1002802D094
:100160000021C943080007B4024802A140180290C8
:1001700003BDC046D9FFFFFF03B4684601B502982E
:1001800000F0CAFD019B9E4602B00CBC7047C04601
:10019000D0400B00D1409C46203AD34018435242F5
:1001A00063469340184370479140030090409C463B
:1001B000203A9340194352426346D3401943704753
:1001C00010B5002903D100F007F8203002E0080044
:1001D00000F002F810BDC0461C2101231B04984208
:1001E00001D3000C10391B0A984201D3000A0839C8
:1001F0001B09984201D30009043902A2105C40187F
:100200007047C04604030202010101010000000022
:100210000000000010B5064C2378002B07D1054BD9
:10022000002B02D0044800E000BF0123237010BD62
:100230000C00002000000000F80D0008044B10B571
:10024000002B03D00349044800E000BF10BDC046A6
:100250000000000010000020F80D000872B6FEE754
:1002600000B593B03422002105A800F02BFD142224
:100270000021684600F026FD14490A68144B1A4014
:1002800080231B0113430B60102305930F3B0B933B
:1002900000230C93A02212020D920E9305A800F0E9
:1002A000DBF800280ED10F23009300230193029363
:1002B000039304930021684600F05CFB002803D1FF
:1002C00013B000BDFFF7CAFFFFF7C8FF0070004082
:1002D000FFE7FFFF10B500F041F8FFF7C1FFFEE7B1
:1002E000FEE7FEE77047704710B500F04BF810BD11
:1002F000054B5A6B01210A435A63996B80225205C0
:100300000A439A637047C0460010024010B50400CB
:100310000F4B1978FA208000FFF7D2FE01000D4B39
:100320001868FFF7CDFE00F061FC00280DD1032C0A
:1003300001D901200AE0013000222100404200F0F2
:1003400051FC054B1C60002000E0012010BDC046A0
:1003500000000020080000200400002010B5084A1A
:10036000136840210B4313600320FFF7CFFF041EE7
:1003700002D00124200010BDFFF7BAFFFAE7C04603
:1003800000200240034A1168034B1B785B1813607E
:100390007047C0462800002000000020014B18686C
:1003A0007047C0462800002010B5264BDA680C23A1
:1003B0001340082B42D00C2B11D0042B09D0214B19
:1003C0005A68520B072313400133802000029840E3
:1003D00010BD1C4B1B68DB0632D51B48F8E7910C9F
:1003E0000F230B401949C85C920D03231A40541C7B
:1003F000144BDB68DB0309D5154A0023002100F00C
:1004000069FC22000023FFF7A3FEE1E70D4B1B6808
:10041000DB0609D50C4A0023002100F05BFC22001A
:100420000023FFF795FED3E70A4A0023002100F0DE
:1004300051FC22000023FFF78BFEC9E70448C7E701
:100440000448C5E70010024000093D00100E0008F6
:1004500000127A000024F400F0B583B0041E00D12D
:1004600065E2C54BDA680C251540DE6880235B0227
:100470001E400368DB0736D5082D2CD00C2D28D064
:10048000636880225202934255D0A022D202934246
:1004900058D0B94B1A68B9490A401A601A688021C5
:1004A00049020A400192019A1A68B5490A401A6045
:1004B0006368002B52D0FFF771FF0700AE4B1B683B
:1004C0009B0310D4FFF76AFFC01B6428F6D90320F2
:1004D0002EE2002ED4D0A84B1B689B0303D5636883
:1004E000002B00D126E223689B076DD5E3689A06AE
:1004F00005D5A148026820210A4302608B43042DE0
:100500003CD00C2D38D0002B00D1B0E09A490A68BD
:100510000920824313430B60FFF740FF0600964B10
:100520001B685B0700D599E0FFF738FF801B0228A6
:10053000F5D90320FCE1904A116880235B020B434C
:100540001360B5E78C4B19688022D2020A431A6007
:100550001968802252020A431A60A9E7FFF71EFFBA
:100560000700854B1B689B03BDD5FFF717FFC01B1A
:100570006428F6D90320DBE1002EC4D17E4A12683C
:10058000520702D5002B00D1D6E17B4E72687D491F
:100590000A40216909020A437260326809218A43CC
:1005A00013433360FFF700FFF26812090F23134073
:1005B000754AD35CD840754B1860754B1868FFF7C7
:1005C000A5FE002800D0B3E12368DB062DD5002D61
:1005D00060D1694B1B689B0503D5A369002B00D133
:1005E000ACE1654A53686B490B40216A0B43536089
:1005F00053681B021B0AE16909060B435360216A19
:10060000490B013180231B028B40D16809090F225D
:100610000A405D498A5CD3405C4A13605C4B1868B1
:10062000FFF774FE002800D082E123681B077DD508
:100630006369002B67D0504A136D01210B4313658A
:10064000FFF7ACFE06004C4B1B6D9B076ED4FFF70B
:10065000A5FE801B0228F6D9032069E146494B68B4
:10066000484A13402269120213434B60ACE7424AE6
:10067000136801218B431360FFF790FE06003E4B89
:100680001B685B07A0D5FFF789FE801B0228F6D9FF
:1006900003204DE1A369002B22D0374A1168802343
:1006A0005B000B431360FFF779FE0600324B1B68BB
:1006B0009B0506D4FFF772FE801B0228F6D90320A3
:1006C00036E12D4A536833490B40216A0B4353608E
:1006D00053681B021B0AE16909060B435360A4E738
:1006E000254A13682C490B401360FFF757FE06009C
:1006F000214B1B689B0598D5FFF750FE801B0228F5
:10070000F6D9032014E11C4A136D01218B431365B4
:10071000FFF744FE0600184B1B6D9B0706D5FFF73D
:100720003DFE801B0228F6D9032001E123685B0708
:1007300000D48EE0104B9B6BDB001BD40E4A916BF8
:1007400080235B050B4393630126144B1B68DB0579
:1007500028D5A36880225200934237D0002B4DD178
:10076000054B1A6D0C490A401A651A6D0C490A406E
:100770001A6531E00026E8E700100240FFFFFEFFA7
:10078000FFFFFBFFFFE0FFFF1C0E0008080000203A
:1007900004000020FF1FFFFFFFFEFFFF007000406E
:1007A000FFFBFFFF6B4A116880235B000B43136064
:1007B000FFF7F4FD0700674B1B68DB05C9D4FFF7A3
:1007C000EDFDC01B6428F6D90320B1E0624A116D2B
:1007D00080235B000B431365A368002B28D0FFF731
:1007E000DDFD07005C4B1B6D9B0530D4FFF7D6FD8C
:1007F000C01B5A4B9842F5D9032099E0A022D200A1
:10080000934209D0544B1A6D55490A401A651A6D26
:1008100054490A401A65DFE74F4B196D013AFF3A18
:100820000A431A65196D802252000A431A65D3E7FC
:10083000FFF7B4FD0700484B1B6D9B0507D5FFF77D
:10084000ADFDC01B454B9842F5D9032070E0012E49
:100850001AD0636A002B00D172E00C2D4FD0022B0E
:1008600018D03D4A136840490B401360FFF796FDCE
:100870000400394B1B689B013FD5FFF78FFD001B20
:100880000228F6D9032053E0334A936B37490B40D3
:100890009363DEE7304A136833490B401360FFF778
:1008A0007DFD05002C4B1B689B0106D5FFF776FDEF
:1008B000401B0228F6D903203AE02749CB682C4A8E
:1008C0001340A26AE06A0243206B02431343CB60E9
:1008D0000A6880235B0413430B60FFF75FFD04008D
:1008E0001D4B1B689B0106D4FFF758FD001B022817
:1008F000F6D903201CE000201AE0002018E0012BAC
:1009000020D0154BDA6880235B021340A16A8B422A
:100910001AD1F0239B031340E16A8B4216D1C02306
:100920001B041A40236B9A4212D1002000E00120E0
:1009300003B0F0BD0120FBE70120F9E70120F7E754
:100940000020F5E70120F3E70120F1E70120EFE7C0
:100950000120EDE700700040001002408813000005
:10096000FFFEFFFFFFFBFFFFFFFFFFFEFFFFFFEFAD
:10097000FFFF02FF70B505000C00002800D1D1E098
:100980006A4B1A68012313408B4219D32B689B07CB
:1009900006D5674AD368F0218B43A9680B43D3601F
:1009A0002B68DB077BD56B68022B20D0032B40D054
:1009B000012B44D05E4A126892051DD4012099E0B3
:1009C0005A4A136801218B4323431360FFF7E6FC67
:1009D0000600564B1A6801231340A342D6D0FFF7F6
:1009E000DDFC801B534A9042F3D9032082E0504A39
:1009F0001268920300D497E04D49CA6803208243ED
:100A00001343CB60FFF7CAFC06006B68022B1CD0B7
:100A1000032B28D0012B34D0454BDB680C221A4223
:100A20003DD0FFF7BBFC801B424B9842F4D903201A
:100A300060E03F4A12689201DED401205AE03C4A4D
:100A400012685207D8D4012054E0394BDA680C23DD
:100A50001340082B23D0FFF7A1FC801B354A90429E
:100A6000F3D9032046E0324BDA680C2313400C2BF9
:100A700015D0FFF793FC801B2E4B9842F3D903202F
:100A800038E02B4BDA680C231340042B07D0FFF718
:100A900085FC801B274B9842F3D903202AE0234B87
:100AA0001A6801231340A34225D82B685B0706D59B
:100AB0001F4AD36820490B40E9680B43D3602B6879
:100AC0001B0707D51A49CB681C4A13402A69D20074
:100AD0001343CB60FFF768FC154BDA6812090F234C
:100AE0001340174AD35CD840164B1860164B186851
:100AF000FFF70CFC70BD0D4A136801218B432343A3
:100B00001360FFF74BFC0600084B1A6801231340E3
:100B1000A342CAD0FFF742FC801B064B9842F3D990
:100B20000320E7E70120E5E70120E3E7002002409A
:100B30000010024088130000FFF8FFFFFFC7FFFF0F
:100B40001C0E0008080000200400002070B50028DA
:100B500011DB8308134DC0339B005C590322104006
:100B6000C000FC3216008640B44389010A4082402E
:100B700022435A5170BD0F230340083B9B080633A4
:100B80009B00094A944663445C6803221040C000FD
:100B9000FC3215008540AC4389010A408240224363
:100BA0005A60E7E700E100E000ED00E00138802353
:100BB0005B0498420FD2094A50600948036A1B023D
:100BC0001B0AC02109060B4303620023936007330D
:100BD0001360002070470120FCE7C04610E000E0F1
:100BE00000ED00E010B5FFF7B1FF10BD10B5FFF745
:100BF000DDFF10BD704700001348854613480168AB
:100C0000090E134A914205D1124813490160134855
:100C10001349016013481449144A002302E0D458D0
:100C2000C4500433C4188C42F9D3114A114C002328
:100C300001E013600432A242FBD3FFF7DBFF00F0B8
:100C40001DF8FFF747FBFEE7000800200400000046
:100C50001F000000341002400100000000000140AD
:100C600000000000000000200C0000203C0E0008E6
:100C70000C0000202C000020FEE7000070B50026CC
:100C80000C4C0D4D641BA410A64209D1002600F0A7
:100C9000B3F80A4C0A4D641BA410A64205D170BDDE
:100CA000B300EB5898470136EEE7B300EB5898478E
:100CB0000136F2E7340E0008340E0008380E000842
:100CC000340E000803008218934200D17047197057
:100CD0000133F9E7F7B5040C0D0091B20F00614341
:100CE0008C460600019383B2100C5F434443584383
:100CF0003B0C60441B18994202D9802149026418B8
:100D0000019955437143180C04191B04BFB24919CA
:100D1000D819091903B0F0BDF0B506000F00150091
:100D20001C0085B08B4263D801D1824260D821007B
:100D30002800FFF745FA390000903000FFF740FA2D
:100D4000009B21001B1A1A0028000393FFF72CFABE
:100D500000900191B94245D801D1B04242D8009BE0
:100D6000019C01200021039AF61AA741FFF71CFA03
:100D700004000D00039B002B2BD0019B009ADB0786
:100D800050081843019B5908039B9C46B9422CD834
:100D900001D1B04229D832003B00121A8B41012602
:100DA00092185B410027B6185F4101235B429C44C7
:100DB0006346002BEAD130003900039AFFF7E8F9C7
:100DC000039AA4197D4106000F00FFF7EDF9241ADC
:100DD0008D410A9B002B01D01E605F60200029001E
:100DE00005B0F0BD00240025C4E7B6197F41DCE75B
:100DF00000240025EDE70000F8B5C046F8BC08BCAB
:100E00009E467047F8B5C046F8BC08BC9E46704781
:100E1000030406080C101820300000000000000039
:0C0E20000000000001020304060708099E
:080E2C00ECFEFF7F0100000055
:040E34003D02000873
:040E38001502000897
:0C0E3C0001000000040000000000200085
:0400000508000BF9EB
:00000001FF
