:020000040800F2
:100000000008002065070008550200085702000894
:1000100000000000000000000000000000000000E0
:10002000000000000000000000000000590200086D
:1000300000000000000000005B0200085D020008F4
:10004000E507000800000000E5070008E5070008D4
:10005000E5070008E5070008E5070008E5070008D0
:1000600000000000E507000819070008E507000880
:10007000E5070008E507000800000000E5070008A4
:100080000000000000000000000000000000000070
:10009000E50700080000000000000000E507000878
:1000A00000000000590700080000000000000000E8
:1000B000E5070008E5070008000000000000000058
:1000C000002934D00123002210B488422CD301240B
:1000D0002407A14204D2814202D209011B01F8E7A0
:1000E000E400A14204D2814202D249005B00F8E759
:1000F000884201D3401A1A434C08A04202D3001B85
:100100005C0822438C08A04202D3001B9C082243B7
:10011000CC08A04202D3001BDC082243002803D0F5
:100120001B0901D00909E3E7100010BC704701B5B5
:10013000002000F00BF802BD0029F8D003B5FFF74E
:10014000C1FF0EBC4243891A1847C0467047C046DB
:1001500010B5064C2378002B07D1054B002B02D09D
:10016000044800E000BF0123237010BD4C000020B4
:100170000000000030080008044B10B5002B03D02D
:100180000349044800E000BF10BDC0460000000065
:10019000500000203008000870B50024002501E060
:1001A0000134E4B2C72C06D800F0F2F90028F7D0E9
:1001B0000135EDB2F4E76320A8428041404270BDB2
:1001C00070B500F0D9F90A2000F090FA002510E08F
:1001D00000F04CF8040000F049F823002D33FF3301
:1001E0009842F8D3184B1868290000F073FA0135CB
:1001F000EDB20A2DECD916E0134B144A1A601EE03A
:1002000000F034F8040000F031F823002D33FF3300
:100210009842F8D30C4B1868290000F05BFA0135BE
:10022000EDB20A2DECD9FFF7B7FF0028FBD0064B43
:100230001A68074B9A42DFD0034B054A1A600A201E
:1002400000F054FA0025ECE7000000200400002034
:1002500024000020FEE7FEE770477047024A13685B
:10026000013313607047C04668000020014B1868D6
:100270007047C046680000207047000010B5344B3E
:10028000DA680C231340042B3AD0082B44D0002BFF
:100290001ED02F4BD868DA68800C0F2101402D4802
:1002A000445C920D032111400131DB68DB0343D430
:1002B000274B1B68DB0633D563011B1B9801C01A53
:1002C000C00000190002FFF7FBFE234B18600BE093
:1002D0001F4B5A68520B072313400133802212022E
:1002E0009A4013001C4A1360194BDA6812090F2355
:1002F00013401A4AD15C184A1368CB40136010BDF2
:10030000134B1B68DB0603D5134B154A1A60EBE74A
:10031000114B144A1A60E7E70F4B134A1A60E3E7E0
:1003200063011B1B9801C01AC00000198002FFF76F
:10033000C7FE094B1860D7E763011B1B9801C01A61
:10034000C00000194002FFF7BBFE034B1860CBE76B
:10035000001002404808000844000020540800082B
:1003600000093D000024F40000127A0001388023C7
:100370005B0498420FD2094A50600948036A1B0285
:100380001B0AC02109060B43036200239360073355
:100390001360002070470120FCE7C04610E000E039
:1003A00000ED00E010B52D4B596B8022D2030A43BB
:1003B0005A635A6B01210A435A631A6B0A431A6340
:1003C000274802680A430260D968802212020A4361
:1003D000DA601A6823490A401A60204B1B689B01A7
:1003E000FBD41E4A136801210B4313601B4B1B688F
:1003F0005B07FBD5194BD968C02212040A43DA60A7
:10040000D968802212030A43DA60196880225204F4
:100410000A431A60114B1B689B01FBD50F4AD36836
:1004200003210B43D3600D4BDB680C221A42FAD038
:10043000FFF724FF094A916B80235B050B4393630D
:10044000094B1868FA218900FFF73AFEFFF78EFF83
:10045000064A136A1B021B0A136210BD00100240F9
:1004600000200240FFFFFFFE4400002000ED00E0FE
:10047000224B596A8022520151405962596A5140B7
:100480005962596B0A435A631D4B1A6808210A4383
:100490001A601A6804390A431A60196880229200A7
:1004A0000A431A601968802252000A431A601A68C7
:1004B00014490A401A601968C02212020A431A60DD
:1004C000114B1968C02292010A431A601A688021F0
:1004D0000A431A601A6870390A431A601A680E399A
:1004E0000A431A60094B8022D2001A60C221890097
:1004F0005A58074802405A507047C0460010024000
:1005000000300140FFFBFFFF3000024000E100E04F
:10051000FFFF00FF144AD36A03210B43D362134B3E
:100520001A6809318A431A601A6804390A431A6042
:100530001A6A102002431A629A680A439A60A0233A
:10054000DB051A680A490A401A60D968AA225201D2
:100550000A43DA60074B1A6878210A431A60DA689E
:100560000A43DA607047C0460010024000040050A1
:100570003FC0FFFF0004014010B5FFF77DFE72B6DB
:10058000FFF710FFFFF7C6FFFFF772FF62B610BD5F
:10059000A023DB051B694020184043425841C0B2EC
:1005A000704700000A4B59600A4A9A60D8600A49AD
:1005B00008688022520002430A601A6801210A4337
:1005C0001A60064A536801310B4353607047C046B6
:1005D000300002400C300140A800024000300140D1
:1005E000044A136801218B431360034B9B681B066D
:1005F000FBD470473000024000300140002801D099
:10060000F8207047C020FCE70A4A536802218B4358
:100610005360002208E0074B9B681B06FBD4054B88
:100620000021D960013292B296235B009A42F2D344
:100630007047C04600300140F0B5D6464F464646AA
:10064000C0B582468946002601251BE073009B1930
:10065000534442469B5C802020416F1C4D4418400F
:10066000FFF7CCFF28700134E4B23D00072CEDD930
:1006700043460133DBB298464346022B01D800249F
:10068000F4E70136092E02D800239846F4E7E0BCCF
:10069000BA46B146A846F0BD10B504000A4B1B7817
:1006A000002BFBD0084B00221A70084A1368402127
:1006B0000B431360FFF7A8FF18216143013189B292
:1006C0000348FFF76FFF10BD4800002000300140D5
:1006D0006C00002010B50C000349FFF7ADFF2000AF
:1006E000FFF7DAFF10BDC0466C00002070B50500B2
:1006F000012405E00020FFF781FF064B1855013467
:100700006B005B19DB00A342F4D22800FFF7C4FFA3
:1007100070BDC0466C00002010B50C4B1B689B05DB
:1007200000D410BD094A516880239B000B435360DD
:10073000FFF756FF064B0022DA605A6802218A430F
:100740005A60044B01221A70EBE7C04600000240D9
:100750000030014048000020014B9B687047C046B4
:10076000003001401348854613480168090E134ABA
:10077000914205D1124813490160134813490160A1
:1007800013481449144A002302E0D458C4500433D7
:10079000C4188C42F9D3114A114C002301E01360B4
:1007A0000432A242FBD3FFF767FD00F01DF8FFF70C
:1007B00007FDFEE700080020040000001F00000005
:1007C0003410024001000000000001400000000061
:1007D000000000204C0000206C0800084C000020A5
:1007E00060010020FEE7000070B500260C4C0D4DA6
:1007F000641BA410A64209D1002600F019F80A4C87
:100800000A4D641BA410A64205D170BDB300EB587D
:1008100098470136EEE7B300EB5898470136F2E708
:1008200064080008640800086808000864080008F4
:10083000F8B5C046F8BC08BC9E467047F8B5C0463F
:08084000F8BC08BC9E4670479D
:10084800030406080C101820300000000000000007
:0C0858000000000001020304060708096C
:04086400790100080E
:040868005101000832
:10086C00240000200F326400326464000A14964B9A
:10087C00C8320A0F7D053264640F32640519966420
:10088C000A4B00000F32000F32000F32000F320003
:10089C000F32000F32000F32000F32000F32000FF8
:0C08AC00320000000000200001000000ED
:040000050800076583
:00000001FF
