:020000040800F2
:1000000000080020F9030008A5010008A701000866
:1000100000000000000000000000000000000000E0
:10002000000000000000000000000000A90100081E
:100030000000000000000000AB010008AD01000856
:100040007904000800000000790400087904000821
:10005000790400087904000879040008790400088C
:100060000000000079040008790400087904000801
:1000700079040008790400080000000079040008F1
:100080000000000000000000000000000000000070
:100090007904000800000000000000007904000856
:1000A00000000000790400080000000000000000CB
:1000B0007904000879040008000000000000000036
:1000C000002934D00123002210B488422CD301240B
:1000D0002407A14204D2814202D209011B01F8E7A0
:1000E000E400A14204D2814202D249005B00F8E759
:1000F000884201D3401A1A434C08A04202D3001B85
:100100005C0822438C08A04202D3001B9C082243B7
:10011000CC08A04202D3001BDC082243002803D0F5
:100120001B0901D00909E3E7100010BC704701B5B5
:10013000002000F00BF802BD0029F8D003B5FFF74E
:10014000C1FF0EBC4243891A1847C0467047C046DB
:1001500010B5064C2378002B07D1054B002B02D09D
:10016000044800E000BF0123237010BD04000020FC
:1001700000000000C4040008044B10B5002B03D09D
:100180000349044800E000BF10BDC0460000000065
:1001900008000020C404000810B500F023F900BED8
:1001A000002010BDFEE7FEE770477047014B0022BC
:1001B0001A607047200000207047000010B5344BD3
:1001C000DA680C231340042B3AD0082B44D0002BC0
:1001D0001ED02F4BD868DA68800C0F2101402D48C3
:1001E000445C920D032111400131DB68DB0343D4F1
:1001F000274B1B68DB0633D563011B1B9801C01A14
:10020000C00000190002FFF75BFF234B18600BE0F2
:100210001F4B5A68520B07231340013380221202EE
:100220009A4013001C4A1360194BDA6812090F2315
:1002300013401A4AD15C184A1368CB40136010BDB2
:10024000134B1B68DB0603D5134B154A1A60EBE70B
:10025000114B144A1A60E7E70F4B134A1A60E3E7A1
:1002600063011B1B9801C01AC00000198002FFF730
:1002700027FF094B1860D7E763011B1B9801C01AC1
:10028000C00000194002FFF71BFF034B1860CBE7CB
:1002900000100240DC04000800000020E804000810
:1002A00000093D000024F40000127A0010B5234B31
:1002B000596B8022D2030A435A6321490A680120FC
:1002C00002430A60D968802212020A43DA601A687F
:1002D00000221A60194B1B689B01FBD4174A136854
:1002E00001210B431360154B1B685B07FBD5134BB8
:1002F000D968C02212040A43DA60D9688022120346
:100300000A43DA601968802252040A431A600B4BD0
:100310001B689B01FBD5094AD36803210B43D360BB
:10032000064BDB680C221A42FAD0FFF747FF034A5C
:10033000916B80235B050B43936310BD001002405B
:1003400000200240114B596A8022520151405962EB
:10035000596A51405962596B0A435A630C4B5A68A7
:1003600080210A435A601A6878390A431A601A6869
:1003700004390A431A601968802212020A431A607B
:1003800019688022D2010A431A60704700100240A7
:1003900000300140104AD36A03210B43D3620F4B54
:1003A0001A68002119601A68082002431A609A68C6
:1003B00002439A60A023DB051A681960D968AA2253
:1003C00052010A43DA60064B1A6878210A431A6020
:1003D000DA680A43DA6070470010024000040050F7
:1003E0000004014010B5FFF7E7FEFFF75FFFFFF7DE
:1003F000D1FFFFF7A7FF10BD1348854613480168DA
:10040000090E134A914205D112481349016013485D
:100410001349016013481449144A002302E0D458D8
:10042000C4500433C4188C42F9D3114A114C002330
:1004300001E013600432A242FBD3FFF7BDFE00F0DF
:100440001DF8FFF7A9FEFEE70008002004000000E9
:100450001F000000341002400100000000000140B5
:10046000000000000000002004000020000500083B
:100470000400002024000020FEE7000070B50026E4
:100480000C4C0D4D641BA410A64209D1002600F0AF
:1004900019F80A4C0A4D641BA410A64205D170BD80
:1004A000B300EB5898470136EEE7B300EB58984796
:1004B0000136F2E7F8040008F8040008FC0400081C
:1004C000F8040008F8B5C046F8BC08BC9E46704762
:0C04D000F8B5C046F8BC08BC9E4670475A
:1004DC00030406080C101820300000000000000077
:0C04EC00000000000102030406070809DC
:0404F800790100087E
:0404FC0051010008A2
:0405000000002000D7
:04000005080003F9F3
:00000001FF
