:020000040800F2
:1000000000080020E50900085D0400085F040008FE
:1000100000000000000000000000000000000000E0
:100020000000000000000000000000006104000863
:100030000000000000000000630400081108000830
:10004000650A000800000000650A0008650A00084B
:10005000650A0008650A0008650A000855080008D6
:1000600000000000650A0008A1090008650A0008F0
:10007000650A0008650A000800000000650A00081B
:100080000000000000000000000000000000000070
:10009000650A00080000000000000000650A000872
:1000A00000000000E109000800000000000000005E
:1000B000650A0008650A0008000000000000000052
:1000C000002934D00123002210B488422CD301240B
:1000D0002407A14204D2814202D209011B01F8E7A0
:1000E000E400A14204D2814202D249005B00F8E759
:1000F000884201D3401A1A434C08A04202D3001B85
:100100005C0822438C08A04202D3001B9C082243B7
:10011000CC08A04202D3001BDC082243002803D0F5
:100120001B0901D00909E3E7100010BC704701B5B5
:10013000002000F05FF802BD0029F8D003B5FFF7FA
:10014000C1FF0EBC4243891A1847C046002941D05E
:1001500010B404004C40A44601230022002900D51D
:100160004942002800D5404288422CD3012424076C
:10017000A14204D2814202D209011B01F8E7E40046
:10018000A14204D2814202D249005B00F8E78842D2
:1001900001D3401A1A434C08A04202D3001B5C084A
:1001A00022438C08A04202D3001B9C082243CC08A7
:1001B000A04202D3001BDC082243002803D01B0905
:1001C00001D00909E3E710006446002C00D5404245
:1001D00010BC704701B5002000F00CF802BDC0460D
:1001E0000029F7D003B5FFF7B3FF0EBC4243891ACD
:1001F0001847C0467047C04610B5064C2378002B00
:1002000007D1054B002B02D0044800E000BF0123BA
:10021000237010BD1000002000000000C00A00087C
:10022000044B10B5002B03D00349044800E000BF85
:1002300010BDC0460000000014000020C00A0008E5
:100240000C4A106883084340C1084B4041094B40A9
:10025000010B4B40410C4B40810D4B40C10E4B40BC
:1002600001210B4004490B604008DB071843106074
:100270007047C046000000202C00002010B51E2250
:10028000002100F015FC10BDF0B5DE4657464E4685
:100290004546E0B583B000F077FA0A2000F068FB2D
:1002A000002510E000F0D0FA040000F0CDFA2300A1
:1002B0002D33FF339842F8D3614B1868290000F0C2
:1002C00045FB0135EDB20A2DECD901239B460025F3
:1002D0002FE0032B11D15A4B5A4A1A6000F0B4FA9E
:1002E0002B00FA33984208D95648FFF7C7FF00237E
:1002F000019389E0524B544A1A6000F051FA0028E9
:1003000012D0524C2278013203231340237000F0A4
:100310004DFA0A2000F02CFB2378DBB2012B03D925
:100320004848FFF7ABFF0025454B18680A2100F04D
:100330000DFB464B1A78D3B2022A09D0022BC8D83B
:10034000002BD7D0012BD8D13D4B414A1A60D4E7BE
:100350003B4B3C4A1A6000F077FA2B00143398426A
:10036000CBD9384B1A78C82359465B1A9A4214DB0A
:100370004B425BB29B460024092C15D80321200078
:10038000FFF7DAFEC9B22F4B620012199B185A5CB4
:100390005A445A540134E4B2EEE74B429A42EADC42
:1003A0004B425BB29B46E6E700F04EFA0500A4E73D
:1003B00001230340994639E0B000801980000A30DB
:1003C000731C98461900FFF7C1FE1E4C6F007F1981
:1003D000E0557007801B8000801B40006430414660
:1003E000FFF7B4FEE41960700023A3704346DEB249
:1003F000013D6DB24B46013B5246D31A9D42DBDABA
:10040000019B0133DBB20193019B032B14D8FFF74F
:1004100017FFC0B2019A14000E4B995C0129C7D096
:10042000FFF78AFEC9B20131CBB299460A4B1A5D79
:1004300092461D570026DDE700F006FA05005CE74E
:100440000400002030000020000B00084E000020B7
:10045000E00A0008D80A0008DC0A0008FEE7FEE708
:10046000704770477047000010B5344BDA680C23B2
:100470001340042B3AD0082B44D0002B1ED02F4B16
:10048000D868DA68800C0F2101402D48445C920D39
:10049000032111400131DB68DB0343D4274B1B6888
:1004A000DB0633D563011B1B9801C01AC00000197D
:1004B0000002FFF705FE234B18600BE01F4B5A6844
:1004C000520B072313400133802212029A4013007B
:1004D0001C4A1360194BDA6812090F2313401A4A99
:1004E000D15C184A1368CB40136010BD134B1B68D6
:1004F000DB0603D5134B154A1A60EBE7114B144A80
:100500001A60E7E70F4B134A1A60E3E763011B1B0E
:100510009801C01AC00000198002FFF7D1FD094BF5
:100520001860D7E763011B1B9801C01AC0000019AF
:100530004002FFF7C5FD034B1860CBE700100240F7
:10054000200B0008080000202C0B000800093D00CB
:100550000024F40000127A00013880235B049842E2
:100560000FD2094A50600948036A1B021B0AC021C6
:1005700009060B43036200239360073313600020D6
:1005800070470120FCE7C04610E000E000ED00E00D
:1005900010B52D4B596B8022D2030A435A635A6B14
:1005A00001210A435A631A6B0A431A6327480268F7
:1005B0000A430260D968802212020A43DA601A688C
:1005C00023490A401A60204B1B689B01FBD41E4A3A
:1005D000136801210B4313601B4B1B685B07FBD5A2
:1005E000194BD968C02212040A43DA60D968802204
:1005F00012030A43DA601968802252040A431A601F
:10060000114B1B689B01FBD50F4AD36803210B4399
:10061000D3600D4BDB680C221A42FAD0FFF724FF9F
:10062000094A916B80235B050B439363094B186860
:10063000FA218900FFF744FDFFF78EFF064A136A8F
:100640001B021B0A136210BD001002400020024072
:10065000FFFFFFFE0800002000ED00E0224B596A7A
:100660008022520151405962596A51405962596B76
:100670000A435A631D4B1A6808210A431A601A6814
:1006800004390A431A601968802292000A431A60EA
:100690001968802252000A431A601A6814490A40F5
:1006A0001A601968C02212020A431A60114B1968B5
:1006B000C02292010A431A601A6880210A431A6014
:1006C0001A6870390A431A601A680E390A431A60A8
:1006D000094B8022D2001A60C22189005A5807486B
:1006E00002405A507047C04600100240003001409E
:1006F000FFFBFFFF3000024000E100E0FFFF00FFD2
:100700001C4AD36A03210B43D3621B4B1A6809317D
:100710008A431A601A6804390A431A601A6A102058
:1007200002431A629A680A439A60A023DB051A689A
:1007300012490A401A60D968AA2252010A43DA60B3
:100740000F4B1A6878210A431A60DA680A43DA60A4
:100750000C4980220A60C12080000A581202120A45
:100760000A501A6840210A431A609A680A439A603C
:100770007047C04600100240000400503FC0FFFF19
:100780000004014000E100E010B5FFF76BFE72B617
:10079000FFF7FEFEFFF7B4FFFFF760FF62B610BD84
:1007A000014B1878C0B2704758000020014B00225E
:1007B0001A707047580000200A4B59600A4A9A6024
:1007C000D8600A4908688022520002430A601A6809
:1007D00001210A431A60064A536801310B435360F2
:1007E0007047C046300002400C300140A800024073
:1007F00000300140044A136801218B431360034B0E
:100800009B681B06FBD4704730000240003001405B
:100810000A4A136801331360094B1B685B060BD44B
:10082000084B1B689133FF331268934204D2044A89
:10083000136840210B4313607047C04654000020EA
:100840000004014050000020014B18687047C0466A
:100850005400002010B572B60E4B5B695B0609D5DB
:100860000C494B69402213434B61A023DB051B69F4
:100870001A4201D062B610BD074B3F3A1A700A0007
:100880000B6840218B431360FFF7DEFF034B1860BA
:10089000F0E7C0460004014058000020500000204E
:1008A000002801D0F8207047C020FCE7F0B5D646FC
:1008B0004F464646C0B582468946002601251BE0C4
:1008C00073009B19534442469B5C802020416F1C5F
:1008D0004D441840FFF7E4FF28700134E4B23D00B6
:1008E000072CEDD943460133DBB298464346022B31
:1008F00001D80024F4E70136092E02D800239846D7
:10090000F4E7E0BCBA46B146A846F0BD10B5084BC6
:100910001B78002BFBD0064B00221A70054A136887
:1009200040242343136089B2FFF746FF10BDC04641
:100930000C0000200030014010B59621024849000B
:10094000FFF7E4FF10BDC0463C0B000870B50C007B
:10095000064D2900FFF7AAFFFFF7EEFF6100091916
:10096000C90001312800FFF7D1FF70BD5C000020F5
:1009700070B50600012505E00020FFF791FF074B49
:10098000585501357400A419E400AC42F4D2FFF7C5
:10099000D3FF02482100FFF7B9FF70BD5C000020C3
:1009A00010B50C4B1B689B0500D410BD094A51685B
:1009B00080239B000B435360FFF71CFF064B002274
:1009C000DA605A6802218A435A60044B01221A7085
:1009D000EBE7C04600000240003001400C00002060
:1009E000704700001348854613480168090E134AF2
:1009F000914205D11248134901601348134901601F
:100A000013481449144A002302E0D458C450043354
:100A1000C4188C42F9D3114A114C002301E0136031
:100A20000432A242FBD3FFF71DFD00F01DF8FFF7D3
:100A30002BFCFEE700080020040000001F0000005F
:100A400034100240010000000000014000000000DE
:100A50000000002010000020700C00081000002092
:100A600050010020FEE7000070B500260C4C0D4D33
:100A7000641BA410A64209D1002600F021F80A4CFC
:100A80000A4D641BA410A64205D170BDB300EB58FB
:100A900098470136EEE7B300EB5898470136F2E786
:100AA000680C0008680C00086C0C0008680C000852
:100AB00003008218934200D1704719700133F9E79F
:100AC000F8B5C046F8BC08BC9E467047F8B5C046AD
:080AD000F8BC08BC9E4670470B
:100AD80003030301020508090F326432320064007F
:100AE8000A14964BC8320A0F7D053200640F7D192F
:100AF800051996640A4B00000F32000F32000F32BE
:100B0800000F32000F32000F32000F32000F320098
:100B18000F32000F32000000030406080C101820E2
:100B28003000000000000000000000000102030483
:100B3800060708090000000000000000000000008F
:100B4800000000000000000000000000000000009D
:100B5800000000000000000000000000000000008D
:100B6800000000000000000000000000000000007D
:100B7800000000000000000000000000000000006D
:100B8800000000000000000000000000000000005D
:100B9800000000000000000000000000000000004D
:100BA800000000000000000000000000000000003D
:100BB800000000000000000000000000000000002D
:100BC800000000000000000000000000000000001D
:100BD800000000000000000000000000000000000D
:100BE80000000000000000000000000000000000FD
:100BF80000000000000000000000000000000000ED
:100C080000000000000000000000000000000000DC
:100C180000000000000000000000000000000000CC
:100C280000000000000000000000000000000000BC
:100C380000000000000000000000000000000000AC
:100C4800000000000000000000000000000000009C
:100C5800000000000000000000000000000000008C
:040C6800210200085D
:040C6C00F901000882
:100C7000EFBEADDE000B0008000020000100000008
:04000005080009E501
:00000001FF
