:020000040800F2
:1000000000080020910500082D0200082F020008BA
:1000100000000000000000000000000000000000E0
:100020000000000000000000000000003102000895
:100030000000000000000000330200083502000844
:100040001106000800000000110600081106000853
:100050001106000811060008110600081106000824
:100060000000000011060008110600081106000833
:100070001106000811060008000000001106000823
:100080000000000000000000000000000000000070
:100090001106000800000000000000001106000822
:1000A00000000000750500080000000000000000CE
:1000B0001106000811060008000000000000000002
:1000C00010B5064C2378002B07D1054B002B02D02E
:1000D000044800E000BF0123237010BD240000206D
:1000E000000000005C060008044B10B5002B03D094
:1000F0000349044800E000BF10BDC04600000000F6
:10010000280000205C060008002243088B4274D3BC
:1001100003098B425FD3030A8B4244D3030B8B4208
:1001200028D3030C8B420DD3FF22090212BA030C11
:100130008B4202D31212090265D0030B8B4219D3F2
:1001400000E0090AC30B8B4201D3CB03C01A524112
:10015000830B8B4201D38B03C01A5241430B8B425A
:1001600001D34B03C01A5241030B8B4201D30B0343
:10017000C01A5241C30A8B4201D3CB02C01A52416A
:10018000830A8B4201D38B02C01A5241430A8B422D
:1001900001D34B02C01A5241030A8B4201D30B0216
:1001A000C01A5241CDD2C3098B4201D3CB01C01A30
:1001B000524183098B4201D38B01C01A524143093A
:1001C0008B4201D34B01C01A524103098B4201D328
:1001D0000B01C01A5241C3088B4201D3CB00C01A95
:1001E000524183088B4201D38B00C01A524143080D
:1001F0008B4201D34B00C01A5241411A00D2014632
:10020000524110467047FFE701B5002000F006F8A4
:1002100002BDC0460029F7D076E770477047C04658
:1002200010B500F047F900F087F9FEE7FEE7FEE7BA
:1002300070477047014B00221A6070474000002051
:100240007047000010B5344BDA680C231340042BC0
:1002500039D0082B43D0002B1DD02F4AD068D1684D
:10026000800C0F2303402D48C45C880D03210140FE
:100270000131D368DB0342D41368DB0633D5620156
:10028000121B93019B1ADB001B191802FFF73CFF9E
:10029000234B18600BE0204B5A68520B0723134086
:1002A0000133802212029A4013001D4A13601A4B38
:1002B000DA6812090F2313401A4AD35C184A1168EE
:1002C000D940116010BD144B1B68DB0603D5144BDD
:1002D000154A1A60EBE7124B144A1A60E7E7104B15
:1002E000134A1A60E3E76201121B93019B1ADB00B9
:1002F0001B199802FFF708FF094B1860D7E7620146
:10030000121B93019B1ADB001B195802FFF7FCFE1E
:10031000034B1860CBE7C04600100240840600087B
:10032000000000207406000800093D000024F400CD
:1003300000127A0010B5244B596B8022D2030A4375
:100340005A6322490A68012002430A60D968802260
:1003500012020A43DA601A681D490A401A601A4BF1
:100360001B689B01FBD4184A136801210B431360DF
:10037000154B1B685B07FBD5134BD968C0221204D1
:100380000A43DA60D968802212030A43DA601968E6
:10039000802252040A431A600B4B1B689B01FBD559
:1003A000094AD36803210B43D360074BDB680C2257
:1003B0001A42FAD0FFF746FF034A916B80235B0590
:1003C0000B43936310BDC046001002400020024062
:1003D000FFFFFFFE1A4B596A8022520151405962B9
:1003E000596A51405962596B0A435A63154B59680F
:1003F0008020014359601968082211431960196867
:10040000043A114319601A688021090211431960E6
:100410001A688021C901114319605A6802435A6061
:100420001A6840210A431A60074B802292041A601E
:10043000C62189005A58054802405A507047C046A4
:10044000001002400030014000E100E0FF00FFFF2B
:10045000144AD36A03210B43D362134B1A68093140
:100460008A431A60196808200143196019688022BC
:10047000114319609A6802439A60A023DB051A6849
:100480000A490A401A60D968AA2252010A43DA606E
:10049000074B1968703001431960DA680243DA606B
:1004A0007047C04600100240000400503FC0FFFFEC
:1004B0000004014010B5FFF7C3FE72B6FFF73AFF24
:1004C000FFF7C6FFFFF786FF62B610BD034B9B68C0
:1004D0009B0701D5024B18707047C04600300140A1
:1004E0000C300140114B1B681D2B1AD80F4B1B6899
:1004F0000F4AD35C0F4A1168481C10600B41190069
:1005000001230B401268082A03D0002B0BD0F020E7
:1005100008E0084A0021116004490A6801320A60B3
:10052000F3E700207047C020FCE7C04648000020E9
:10053000040000204400002010B500230A4A136084
:100540000A4A1360FFF7CEFFFFF7C0FF084B1B7886
:10055000002B07D1044B1B681D2BF7D9044B01223C
:100560001A70F3E710BDC046480000204400002088
:100570004C00002010B500BE044B9B689B0700D4C4
:1005800010BDFFF7AFFFFFF7A1FFF9E70030014013
:100590001348854613480168090E134A914205D154
:1005A0001248134901601348134901601348144964
:1005B000144A002302E0D458C4500433C4188C42B7
:1005C000F9D3114A114C002301E013600432A24216
:1005D000FBD3FFF735FE00F01DF8FFF721FEFEE725
:1005E00000080020040000001F000000341002403A
:1005F0000100000000000140000000000000002099
:10060000240000209806000824000020500000204C
:10061000FEE7000070B500260C4D0D4C641BA410C5
:10062000A64209D1002600F019F80A4D0A4C641BB5
:10063000A410A64205D170BDB300EB58984701360F
:10064000EEE7B300EB5898470136F2E79006000852
:10065000900600089006000894060008F8B5C04609
:10066000F8BC08BC9E467047F8B5C046F8BC08BC4C
:040670009E467047EB
:10067400000000000000000001020304060708094E
:0C068400030406080C10182030000000D1
:04069000E900000875
:04069400C100000899
:1006980000002000808080000000000000000000B2
:1006A8000000000000000000000000000000000042
:0406B800000000003E
:040000050800059159
:00000001FF
