:020000040800F2
:1000000000080020B9070008310200083302000888
:1000100000000000000000000000000000000000E0
:100020000000000000000000000000003502000891
:10003000000000000000000037020008E50500088D
:1000400039080008000000003908000839080008D5
:10005000390800083908000839080008290600088E
:10006000000000003908000875070008390800087A
:1000700039080008390800080000000039080008A5
:100080000000000000000000000000000000000070
:1000900039080008000000000000000039080008CE
:1000A00000000000B507000800000000000000008C
:1000B00039080008390800080000000000000000AE
:1000C000002934D00123002210B488422CD301240B
:1000D0002407A14204D2814202D209011B01F8E7A0
:1000E000E400A14204D2814202D249005B00F8E759
:1000F000884201D3401A1A434C08A04202D3001B85
:100100005C0822438C08A04202D3001B9C082243B7
:10011000CC08A04202D3001BDC082243002803D0F5
:100120001B0901D00909E3E7100010BC704701B5B5
:10013000002000F00BF802BD0029F8D003B5FFF74E
:10014000C1FF0EBC4243891A1847C0467047C046DB
:1001500010B5064C2378002B07D1054B002B02D09D
:10016000044800E000BF0123237010BD4C000020B4
:100170000000000084080008044B10B5002B03D0D9
:100180000349044800E000BF10BDC0460000000065
:10019000500000208408000870B500F0DFF90A2044
:1001A00000F0D0FA002510E000F038FA040000F06A
:1001B00035FA23002D33FF339842F8D3194B1868D2
:1001C000290000F0ADFA0135EDB20A2DECD916E0A8
:1001D000144B154A1A601EE000F020FA040000F0EB
:1001E0001DFA23002D33FF339842F8D30D4B1868C6
:1001F000290000F095FA0135EDB20A2DECD900F096
:10020000B9F90028FBD0074B1A68084B9A42DFD097
:10021000044B064A1A6000F0B3F90A2000F092FA83
:100220000025EAE700000020040000202400002050
:10023000FEE7FEE7704770477047000010B5344B8B
:10024000DA680C231340042B3AD0082B44D0002B3F
:100250001ED02F4BD868DA68800C0F2101402D4842
:10026000445C920D032111400131DB68DB0343D470
:10027000274B1B68DB0633D563011B1B9801C01A93
:10028000C00000190002FFF71BFF234B18600BE0B2
:100290001F4B5A68520B072313400133802212026E
:1002A0009A4013001C4A1360194BDA6812090F2395
:1002B00013401A4AD15C184A1368CB40136010BD32
:1002C000134B1B68DB0603D5134B154A1A60EBE78B
:1002D000114B144A1A60E7E70F4B134A1A60E3E721
:1002E00063011B1B9801C01AC00000198002FFF7B0
:1002F000E7FE094B1860D7E763011B1B9801C01A82
:10030000C00000194002FFF7DBFE034B1860CBE78B
:10031000001002409C08000844000020A8080008C3
:1003200000093D000024F40000127A000138802307
:100330005B0498420FD2094A50600948036A1B02C5
:100340001B0AC02109060B43036200239360073395
:100350001360002070470120FCE7C04610E000E079
:1003600000ED00E010B52D4B596B8022D2030A43FB
:100370005A635A6B01210A435A631A6B0A431A6380
:10038000274802680A430260D968802212020A43A1
:10039000DA601A6823490A401A60204B1B689B01E7
:1003A000FBD41E4A136801210B4313601B4B1B68CF
:1003B0005B07FBD5194BD968C02212040A43DA60E7
:1003C000D968802212030A43DA6019688022520435
:1003D0000A431A60114B1B689B01FBD50F4AD36877
:1003E00003210B43D3600D4BDB680C221A42FAD079
:1003F000FFF724FF094A916B80235B050B4393634E
:10040000094B1868FA218900FFF75AFEFFF78EFFA3
:10041000064A136A1B021B0A136210BD0010024039
:1004200000200240FFFFFFFE4400002000ED00E03E
:10043000224B596A8022520151405962596A5140F7
:100440005962596B0A435A631D4B1A6808210A43C3
:100450001A601A6804390A431A60196880229200E7
:100460000A431A601968802252000A431A601A6807
:1004700014490A401A601968C02212020A431A601D
:10048000114B1968C02292010A431A601A68802130
:100490000A431A601A6870390A431A601A680E39DA
:1004A0000A431A60094B8022D2001A60C2218900D7
:1004B0005A58074802405A507047C0460010024040
:1004C00000300140FFFBFFFF3000024000E100E090
:1004D000FFFF00FF1C4AD36A03210B43D3621B4B6F
:1004E0001A6809318A431A601A6804390A431A6083
:1004F0001A6A102002431A629A680A439A60A0237B
:10050000DB051A6812490A401A60D968AA2252010A
:100510000A43DA600F4B1A6878210A431A60DA68D6
:100520000A43DA600C4980220A60C12080000A5820
:100530001202120A0A501A6840210A431A609A6885
:100540000A439A607047C046001002400004005001
:100550003FC0FFFF0004014000E100E010B5FFF7DD
:100560006BFE72B6FFF7FEFEFFF7B4FFFFF760FF0A
:1005700062B610BD014B1878C0B270477000002001
:10058000014B00221A707047700000200A4B59601E
:100590000A4A9A60D8600A490868802252000243D9
:1005A0000A601A6801210A431A60064A5368013139
:1005B0000B4353607047C046300002400C3001408E
:1005C000A800024000300140044A136801218B4317
:1005D0001360034B9B681B06FBD47047300002403E
:1005E000003001400A4A136801331360094B1B684D
:1005F0005B060BD4084B1B689133FF3312689342A0
:1006000004D2044A136840210B4313607047C0466C
:100610006C0000200004014068000020014B1868B5
:100620007047C0466C00002010B572B60E4B5B6977
:100630005B0609D50C494B69402213434B61A0234B
:10064000DB051B691A4201D062B610BD074B3F3A69
:100650001A700A000B6840218B431360FFF7DEFF1E
:10066000034B1860F0E7C046000401407000002012
:1006700068000020002801D0F8207047C020FCE767
:10068000F0B5D6464F464646C0B582468946002656
:1006900001251BE073009B19534442469B5C80205C
:1006A00020416F1C4D441840FFF7E4FF28700134CF
:1006B000E4B23D00072CEDD943460133DBB2984646
:1006C0004346022B01D80024F4E70136092E02D854
:1006D00000239846F4E7E0BCBA46B146A846F0BD10
:1006E00010B5084B1B78002BFBD0064B00221A706C
:1006F000054A136840242343136089B2FFF746FF7D
:1007000010BDC046480000200030014010B59621C1
:1007100002484900FFF7E4FF10BDC046B8080008D2
:1007200070B50C00064D2900FFF7AAFFFFF7EEFF9A
:1007300061000919C90001312800FFF7D1FF70BD20
:100740007400002070B50600012505E00020FFF7C9
:1007500091FF074B585501357400A419E400AC42D1
:10076000F4D2FFF7D3FF02482100FFF7B9FF70BDB5
:100770007400002010B50C4B1B689B0500D410BD05
:10078000094A516880239B000B435360FFF71CFF0D
:10079000064B0022DA605A6802218A435A60044BF1
:1007A00001221A70EBE7C046000002400030014011
:1007B0004800002070470000134885461348016830
:1007C000090E134A914205D112481349016013489A
:1007D0001349016013481449144A002302E0D45815
:1007E000C4500433C4188C42F9D3114A114C00236D
:1007F00001E013600432A242FBD3FFF71DFD00F0BD
:100800001DF8FFF7C9FCFEE7000800200400000007
:100810001F000000341002400100000000000140F1
:1008200000000000000000204C000020EC0900083F
:100830004C00002068010020FEE7000070B5002693
:100840000C4C0D4D641BA410A64209D1002600F0EB
:1008500019F80A4C0A4D641BA410A64205D170BDBC
:10086000B300EB5898470136EEE7B300EB589847D2
:100870000136F2E7E4090008E4090008E809000885
:10088000E4090008F8B5C046F8BC08BC9E467047AD
:0C089000F8B5C046F8BC08BC9E46704796
:10089C00030406080C1018203000000000000000B3
:1008AC000000000001020304060708090000000014
:1008BC00000000000000000000000000000000002C
:1008CC00000000000000000000000000000000001C
:1008DC00000000000000000000000000000000000C
:1008EC0000000000000000000000000000000000FC
:1008FC0000000000000000000000000000000000EC
:10090C0000000000000000000000000000000000DB
:10091C0000000000000000000000000000000000CB
:10092C0000000000000000000000000000000000BB
:10093C0000000000000000000000000000000000AB
:10094C00000000000000000000000000000000009B
:10095C00000000000000000000000000000000008B
:10096C00000000000000000000000000000000007B
:10097C00000000000000000000000000000000006B
:10098C00000000000000000000000000000000005B
:10099C00000000000000000000000000000000004B
:1009AC00000000000000000000000000000000003B
:1009BC00000000000000000000000000000000002B
:1009CC00000000000000000000000000000000001B
:0809DC00000000000000000013
:0409E400790100088D
:0409E80051010008B1
:1009EC00240000200F326432320064000A14964B4B
:1009FC00C8320A0F7D053200640F7D190519966403
:100A0C000A4B00000F32000F32000F32000F320081
:100A1C000F32000F32000F32000F32000F32000F76
:0C0A2C003200000000002000010000006B
:04000005080007B92F
:00000001FF
